:1000000077ED00F07DED00F0C06AC26ACEB604EF75
:1000100000F015EF00F0CEB61200A9EC00F011EFE1
:1000200000F0CEB611EF00F01200010EC06E010E0E
:10003000C26F0BEC00F09AED00F00BEC00F0020E3A
:10004000C06E020EC26F0BEC00F08BED00F00BECFB
:1000500000F08BED00F00BEC00F0040EC06E010E12
:10006000C26F0BEC00F08BED00F00BEC00F0080E13
:10007000C06E020EC26F0BEC00F08BED00F00BECCB
:1000800000F08BED00F00BEC00F0100EC06E010ED6
:10009000C26F0BEC00F08BED00F00BEC00F0200ECB
:1000A000C06E020EC26F0BEC00F08BED00F00BEC9B
:1000B00000F08BED00F00BEC00F0400EC06E010E76
:1000C000C26F0BEC00F08BED00F00BEC00F0800E3B
:1000D000C06E020EC26F0BEC00F08BED00F00BEC6B
:1000E00000F08BED00F00BEC00F015EF00F00001DC
:1000F000600EAD6F020EB16F12000401D06B106B79
:10010000C86A0401D26B206BCA6A0401CE6B006B13
:10011000C68701871200640E016EF50E006E0000A6
:10012000002E8FEF00F0000000000000012E8DEF88
:1001300000F01200FA0E016EF70E006E0000002EA5
:100140009EEF00F0000000000000012E9CEF00F088
:100150001200640E016EF80E006E00000000002E0A
:10016000AEEF00F000000000012EABEF00F0120037
:020000040001F9
:04FFFC0000EF00F022
:020000040030CA
:10000000EC0D27C79FFFFFFFFFFFFFFFFFFFFFFF75
:10001000FFFFFFFFFFFFFFFFFFFFFFFFFFFFFFFFF0
:03002000FFFFFFE0
:00000001FF
